S1210400BDD00E9634D635BDD1B19634D635BDD1109634C624BDFF819634BDFF6D963E
S114041E35BDFF6DC60DBDFF81C60ABDFF817E0400CC
S12105005FF7F010C601F7F010F7F020F6F02017F6F021584958495849BDD1B1C60DA5
S114051EBDFF81C60ABDFF81F6F0005424D47EFFD8F7
S121D000E6002706BDFF810820F6393F2000CED00BBDD00086307F0038CE003AC60097
S121D01ED73AD73BD73CD73DD73ED73FBDFF00C12B2707C12D2606730038BDFF00C163
S121D03C2E2739C1302511C139220DE700088C003F2705BDFF0020EBCE003ABDD0E0D2
S121D05AD63596347D00382A064353CB0189009734D735C60DBDFF81C60ABDFF8139E2
S121D078BDFF00C130250EC139220AE700088C003E270220EBCE003ABDD09520C54F45
S121D09697349735973097318604E6005858585858790031790030587900317900302C
S121D0B45879003179003058790031790030084A26DAC60F96319B311997319630990A
S121D0D2301997307900357900345A26E9394F97349735E6002726C40F088C003F2E42
S121D0F01ED730780035790034D635963458495849DB359934DB3089009734D7352020
S121D10ED6394D2A1A81802608C1002604CB0189004353CB018900D7319730C62D2023
S121D12C06D7319730C62BBDFF819630D6317F0039C01082272B09D73197307C003928
S121D14A20F1D639CB30BDFF819630D6317F0039C0E882032B09D73197307C003920E1
S121D168F1D639CB30BDFF819630D6317F0039C06482002B099730D7317C003920F179
S121D186D639CB30BDFF81D6317F0039C00A2B07D7317C003920F5D639CB30BDFF816C
S121D1A4D631CB30BDFF81C620BDFF8139D73197302B04C62B201CD6319630818026AF
S121D1C208C1002604CB0189004353CB0189009730D731C62DBDFF81C630BDFF81C620
S121D1E02EBDFF81780031790030CE00057F00327F0033780031790030790032963275
S121D1FE9733D631963058497900335849790033DB319930D731973024037C003396CE
S115D21C329B338B3016BDFF810926C5C620BDFF81399E
S9
